{
  "_format": "hh-sol-artifact-1",
  "contractName": "LicencseToken",
  "sourceName": "contracts/LicenseKey.sol",
  "abi": [
    {
      "inputs": [
        {
          "internalType": "address",
          "name": "_sendToken",
          "type": "address"
        },
        {
          "internalType": "address",
          "name": "_masterAddress",
          "type": "address"
        }
      ],
      "stateMutability": "nonpayable",
      "type": "constructor"
    },
    {
      "anonymous": false,
      "inputs": [
        {
          "indexed": false,
          "internalType": "address",
          "name": "owner",
          "type": "address"
        },
        {
          "indexed": false,
          "internalType": "address",
          "name": "approved",
          "type": "address"
        },
        {
          "indexed": false,
          "internalType": "uint256",
          "name": "tokenId",
          "type": "uint256"
        }
      ],
      "name": "Approval",
      "type": "event"
    },
    {
      "anonymous": false,
      "inputs": [
        {
          "indexed": false,
          "internalType": "address",
          "name": "account",
          "type": "address"
        },
        {
          "indexed": false,
          "internalType": "uint256",
          "name": "tokenId",
          "type": "uint256"
        }
      ],
      "name": "LicenseGiven",
      "type": "event"
    },
    {
      "anonymous": false,
      "inputs": [
        {
          "indexed": false,
          "internalType": "address",
          "name": "from",
          "type": "address"
        },
        {
          "indexed": false,
          "internalType": "address",
          "name": "to",
          "type": "address"
        },
        {
          "indexed": false,
          "internalType": "uint256",
          "name": "tokenId",
          "type": "uint256"
        }
      ],
      "name": "Transfer",
      "type": "event"
    },
    {
      "inputs": [],
      "name": "USDC",
      "outputs": [
        {
          "internalType": "contract IERC20",
          "name": "",
          "type": "address"
        }
      ],
      "stateMutability": "view",
      "type": "function"
    },
    {
      "inputs": [
        {
          "internalType": "address",
          "name": "_receiveAddress",
          "type": "address"
        }
      ],
      "name": "_getReceiveAddress",
      "outputs": [],
      "stateMutability": "nonpayable",
      "type": "function"
    },
    {
      "inputs": [
        {
          "internalType": "uint256",
          "name": "_tokenId",
          "type": "uint256"
        },
        {
          "internalType": "string",
          "name": "_deviceId",
          "type": "string"
        }
      ],
      "name": "activate",
      "outputs": [],
      "stateMutability": "nonpayable",
      "type": "function"
    },
    {
      "inputs": [
        {
          "internalType": "address",
          "name": "_to",
          "type": "address"
        },
        {
          "internalType": "uint256",
          "name": "_tokenId",
          "type": "uint256"
        }
      ],
      "name": "approve",
      "outputs": [],
      "stateMutability": "nonpayable",
      "type": "function"
    },
    {
      "inputs": [
        {
          "internalType": "address",
          "name": "_account",
          "type": "address"
        }
      ],
      "name": "balanceOf",
      "outputs": [
        {
          "internalType": "uint256",
          "name": "balance",
          "type": "uint256"
        }
      ],
      "stateMutability": "view",
      "type": "function"
    },
    {
      "inputs": [
        {
          "internalType": "address",
          "name": "_account",
          "type": "address"
        },
        {
          "internalType": "uint256",
          "name": "_tokenId",
          "type": "uint256"
        }
      ],
      "name": "burn",
      "outputs": [],
      "stateMutability": "nonpayable",
      "type": "function"
    },
    {
      "inputs": [
        {
          "internalType": "uint256",
          "name": "",
          "type": "uint256"
        }
      ],
      "name": "datas",
      "outputs": [
        {
          "internalType": "uint256",
          "name": "dataId",
          "type": "uint256"
        },
        {
          "internalType": "address",
          "name": "senderAddress",
          "type": "address"
        },
        {
          "internalType": "address",
          "name": "receiverAddress",
          "type": "address"
        }
      ],
      "stateMutability": "view",
      "type": "function"
    },
    {
      "inputs": [
        {
          "internalType": "address",
          "name": "_account",
          "type": "address"
        }
      ],
      "name": "giveLicense",
      "outputs": [],
      "stateMutability": "nonpayable",
      "type": "function"
    },
    {
      "inputs": [
        {
          "internalType": "address",
          "name": "_account",
          "type": "address"
        },
        {
          "internalType": "uint256",
          "name": "_tokenId",
          "type": "uint256"
        }
      ],
      "name": "handleExpiredLicense",
      "outputs": [],
      "stateMutability": "nonpayable",
      "type": "function"
    },
    {
      "inputs": [
        {
          "internalType": "address",
          "name": "_senderAddress",
          "type": "address"
        },
        {
          "internalType": "address",
          "name": "_receiverAddress",
          "type": "address"
        }
      ],
      "name": "invite",
      "outputs": [],
      "stateMutability": "nonpayable",
      "type": "function"
    },
    {
      "inputs": [
        {
          "internalType": "address",
          "name": "_account",
          "type": "address"
        },
        {
          "internalType": "uint256",
          "name": "_tokenId",
          "type": "uint256"
        }
      ],
      "name": "isLicenseActive",
      "outputs": [
        {
          "internalType": "uint256",
          "name": "state",
          "type": "uint256"
        }
      ],
      "stateMutability": "view",
      "type": "function"
    },
    {
      "inputs": [
        {
          "internalType": "address",
          "name": "_from",
          "type": "address"
        }
      ],
      "name": "licensePriceTransfer",
      "outputs": [],
      "stateMutability": "nonpayable",
      "type": "function"
    },
    {
      "inputs": [
        {
          "internalType": "address",
          "name": "_receiveAddress",
          "type": "address"
        }
      ],
      "name": "makingTree",
      "outputs": [],
      "stateMutability": "nonpayable",
      "type": "function"
    },
    {
      "inputs": [
        {
          "internalType": "uint256",
          "name": "_tokenId",
          "type": "uint256"
        }
      ],
      "name": "ownerOf",
      "outputs": [
        {
          "internalType": "address",
          "name": "owner",
          "type": "address"
        }
      ],
      "stateMutability": "view",
      "type": "function"
    },
    {
      "inputs": [],
      "name": "reward",
      "outputs": [],
      "stateMutability": "nonpayable",
      "type": "function"
    },
    {
      "inputs": [
        {
          "internalType": "address",
          "name": "_from",
          "type": "address"
        },
        {
          "internalType": "address",
          "name": "_to",
          "type": "address"
        },
        {
          "internalType": "uint256",
          "name": "_tokenId",
          "type": "uint256"
        }
      ],
      "name": "safeTransferFrom",
      "outputs": [],
      "stateMutability": "nonpayable",
      "type": "function"
    },
    {
      "inputs": [
        {
          "internalType": "address",
          "name": "_from",
          "type": "address"
        },
        {
          "internalType": "address",
          "name": "_to",
          "type": "address"
        },
        {
          "internalType": "uint256",
          "name": "_tokenId",
          "type": "uint256"
        },
        {
          "internalType": "bytes",
          "name": "data",
          "type": "bytes"
        }
      ],
      "name": "safeTransferFrom",
      "outputs": [],
      "stateMutability": "nonpayable",
      "type": "function"
    },
    {
      "inputs": [
        {
          "internalType": "uint256",
          "name": "",
          "type": "uint256"
        }
      ],
      "name": "sender",
      "outputs": [
        {
          "internalType": "address",
          "name": "",
          "type": "address"
        }
      ],
      "stateMutability": "view",
      "type": "function"
    },
    {
      "inputs": [
        {
          "internalType": "address",
          "name": "_operator",
          "type": "address"
        },
        {
          "internalType": "bool",
          "name": "_approved",
          "type": "bool"
        }
      ],
      "name": "setApprovalForAll",
      "outputs": [],
      "stateMutability": "pure",
      "type": "function"
    },
    {
      "inputs": [
        {
          "internalType": "uint256",
          "name": "",
          "type": "uint256"
        }
      ],
      "name": "tokenIndexToApproved",
      "outputs": [
        {
          "internalType": "address",
          "name": "",
          "type": "address"
        }
      ],
      "stateMutability": "view",
      "type": "function"
    },
    {
      "inputs": [
        {
          "internalType": "uint256",
          "name": "",
          "type": "uint256"
        }
      ],
      "name": "tokenIndexToOwner",
      "outputs": [
        {
          "internalType": "address",
          "name": "",
          "type": "address"
        }
      ],
      "stateMutability": "view",
      "type": "function"
    },
    {
      "inputs": [],
      "name": "totalSupply",
      "outputs": [
        {
          "internalType": "uint256",
          "name": "total",
          "type": "uint256"
        }
      ],
      "stateMutability": "view",
      "type": "function"
    },
    {
      "inputs": [
        {
          "internalType": "address",
          "name": "_from",
          "type": "address"
        },
        {
          "internalType": "address",
          "name": "_to",
          "type": "address"
        },
        {
          "internalType": "uint256",
          "name": "_tokenId",
          "type": "uint256"
        }
      ],
      "name": "transferFrom",
      "outputs": [],
      "stateMutability": "nonpayable",
      "type": "function"
    },
    {
      "inputs": [
        {
          "internalType": "address",
          "name": "newOwner",
          "type": "address"
        }
      ],
      "name": "transferOwnership",
      "outputs": [],
      "stateMutability": "nonpayable",
      "type": "function"
    }
  ],
  "bytecode": "0x608060405260006002556000600355600160045561025860055560046005546200002a919062000104565b60065560006007553480156200003f57600080fd5b50604051620017d2380380620017d28339810160408190526200006291620000cd565b600080546001600160a01b03199081163317909155600f80546001600160a01b0394851690831617908190556001805483169185169190911790556010805492909316911617905562000125565b80516001600160a01b0381168114620000c857600080fd5b919050565b60008060408385031215620000e0578182fd5b620000eb83620000b0565b9150620000fb60208401620000b0565b90509250929050565b6000826200012057634e487b7160e01b81526012600452602481fd5b500490565b61169d80620001356000396000f3fe608060405234801561001057600080fd5b50600436106101585760003560e01c80636f4c6443116100c3578063afb072481161007c578063afb07248146102b7578063b88d4fde146102ca578063c0a094fd146102dd578063c1ac56d0146102ff578063e1721ec814610312578063f2fde38b1461032557610158565b80636f4c64431461025057806370a082311461026357806389a30271146102765780639dc29fac1461027e578063a22cb46514610291578063a8bd9c32146102a457610158565b806337235a221161011557806337235a22146101de57806342842e0e146101f157806348c20f3d146102045780635545a1ea146102175780635690d0d91461022a5780636352211e1461023d57610158565b8063095ea7b31461015d57806318160ddd146101725780631b9b7115146101905780631d36e06c146101a3578063228cb733146101c357806323b872dd146101cb575b600080fd5b61017061016b366004611424565b610338565b005b61017a6103c7565b604051610187919061152a565b60405180910390f35b61017061019e3660046112ee565b6103cd565b6101b66101b1366004611469565b61052e565b60405161018791906114d9565b610170610549565b6101706101d936600461133a565b610717565b6101706101ec3660046112ee565b610775565b6101706101ff36600461133a565b610529565b61017a610212366004611424565b61086f565b6101706102253660046112ee565b610a41565b610170610238366004611481565b610a96565b6101b661024b366004611469565b610b5e565b61017061025e366004611308565b610b85565b61017a6102713660046112ee565b610c70565b6101b6610c8b565b61017061028c366004611424565b610c9a565b61017061029f3660046113ee565b61086b565b6101b66102b2366004611469565b610d92565b6101706102c53660046112ee565b610dad565b6101706102d8366004611375565b610b58565b6102f06102eb366004611469565b610dfb565b60405161018793929190611533565b6101b661030d366004611469565b610e3b565b610170610320366004611424565b610e56565b6101706103333660046112ee565b610f0e565b6103423382610f47565b61034b57600080fd5b6000818152600d6020818152604080842080546001600160a01b0319166001600160a01b038881169190911791829055600b8452948290205493909252517f8c5be1e5ebec7d5bd14f71427d1e84f3dd0314c0f7b2291e5b200ac8c7c3b925936103bb93811692169085906114ed565b60405180910390a15050565b60095490565b6000600460055460036103e0919061158a565b6103ea919061156a565b6001546010549192506001600160a01b03908116916323b872dd9185911661041a85670de0b6b3a764000061158a565b6040518463ffffffff1660e01b8152600401610438939291906114ed565b602060405180830381600087803b15801561045257600080fd5b505af1158015610466573d6000803e3d6000fd5b505050506040513d601f19601f8201168201806040525081019061048a919061144d565b506001546006546001600160a01b03909116906323b872dd90849030906104b990670de0b6b3a764000061158a565b6040518463ffffffff1660e01b81526004016104d7939291906114ed565b602060405180830381600087803b1580156104f157600080fd5b505af1158015610505573d6000803e3d6000fd5b505050506040513d601f19601f82011682018060405250810190610529919061144d565b505050565b600b602052600090815260409020546001600160a01b031681565b600060015b600454811015610664576032600855600181141561057057600a60085561057f565b806002141561057f5760146008555b6001546000828152600e60205260409020546008546006546001600160a01b039384169363a9059cbb9316916105b49161156a565b6105c690670de0b6b3a764000061158a565b6040518363ffffffff1660e01b81526004016105e3929190611511565b602060405180830381600087803b1580156105fd57600080fd5b505af1158015610611573d6000803e3d6000fd5b505050506040513d601f19601f82011682018060405250810190610635919061144d565b50600854600654610646919061156a565b6106509083611552565b91508061065c81611612565b91505061054e565b506001546010546006546001600160a01b039283169263a9059cbb92169061068d9085906115a9565b61069f90670de0b6b3a764000061158a565b6040518363ffffffff1660e01b81526004016106bc929190611511565b602060405180830381600087803b1580156106d657600080fd5b505af11580156106ea573d6000803e3d6000fd5b505050506040513d601f19601f8201168201806040525081019061070e919061144d565b50506001600455565b6000546001600160a01b0316331461072e57600080fd5b6001600160a01b03821661074157600080fd5b6001600160a01b03821630141561075757600080fd5b6107618382610f47565b61076a57600080fd5b610529838383610f67565b600060038190555b600a5481101561086b57816001600160a01b0316600a82815481106107b257634e487b7160e01b600052603260045260246000fd5b60009182526020909120600260039092020101546001600160a01b0316141561085957600a81815481106107f657634e487b7160e01b600052603260045260246000fd5b600091825260208083206001600390930201820154600480548552600e909252604090932080546001600160a01b0319166001600160a01b0390941693909317909255905461084491611552565b600455600354610855906001611552565b6003555b8061086381611612565b91505061077d565b5050565b6000818152600b60205260408120546001600160a01b0384811691161461089557600080fd5b6000600983815481106108b857634e487b7160e01b600052603260045260246000fd5b906000526020600020906004020160405180608001604052908160008201548152602001600182015481526020016002820160009054906101000a900460ff16600281111561091757634e487b7160e01b600052602160045260246000fd5b600281111561093657634e487b7160e01b600052602160045260246000fd5b815260200160038201805461094a906115d7565b80601f0160208091040260200160405190810160405280929190818152602001828054610976906115d7565b80156109c35780601f10610998576101008083540402835291602001916109c3565b820191906000526020600020905b8154815290600101906020018083116109a657829003601f168201915b5050505050815250509050428160200151108015610a045750600081604001516002811115610a0257634e487b7160e01b600052602160045260246000fd5b145b15610a13576002915050610a3b565b80604001516002811115610a3757634e487b7160e01b600052602160045260246000fd5b9150505b92915050565b6000546001600160a01b03163314610a5857600080fd5b6000610a6382611049565b90507f438c1191298866ed823d6b9068bc5bdcdea4883fb9ad0584b7c51354efa3c44e82826040516103bb929190611511565b6000546001600160a01b03163314610aad57600080fd5b600060098381548110610ad057634e487b7160e01b600052603260045260246000fd5b90600052602060002090600402019050806000015460001415610af257600080fd5b600160028083015460ff1690811115610b1b57634e487b7160e01b600052602160045260246000fd5b14610b2557600080fd5b60028101805460ff19169055610b3e62278d0042611552565b60018201558151610b589060038301906020850190611190565b50505050565b6000818152600b60205260409020546001600160a01b031680610b8057600080fd5b919050565b604080516060810182526002805482526001600160a01b0380861660208401908152858216948401948552600a805460018181018355600092909252945160039095027fc65a7bb8d6351c1cf70c95a316cc6a92839c986682d98bc35f958f4883f9d2a881019590955590517fc65a7bb8d6351c1cf70c95a316cc6a92839c986682d98bc35f958f4883f9d2a9850180549184166001600160a01b031992831617905594517fc65a7bb8d6351c1cf70c95a316cc6a92839c986682d98bc35f958f4883f9d2aa909401805494909216939094169290921790915554610c6991611552565b6002555050565b6001600160a01b03166000908152600c602052604090205490565b6001546001600160a01b031681565b6000546001600160a01b03163314610cb157600080fd5b6000818152600b60205260409020546001600160a01b03838116911614610cd757600080fd5b6001600160a01b0382166000908152600c60205260408120805491610cfb836115c0565b90915550506000818152600b6020526040902080546001600160a01b03191690556009805482908110610d3e57634e487b7160e01b600052603260045260246000fd5b6000918252602082206004909102018181556001810182905560028101805460ff1916905590610d716003830182611214565b50506000908152600d6020526040902080546001600160a01b031916905550565b600d602052600090815260409020546001600160a01b031681565b610db681610775565b60035415610df857610df3600e60006001600454610dd491906115a9565b81526020810191909152604001600020546001600160a01b0316610775565b610db6565b50565b600a8181548110610e0b57600080fd5b60009182526020909120600390910201805460018201546002909201549092506001600160a01b03918216911683565b600e602052600090815260409020546001600160a01b031681565b6000546001600160a01b03163314610e6d57600080fd5b6000818152600b60205260409020546001600160a01b03838116911614610e9357600080fd5b600060098281548110610eb657634e487b7160e01b600052603260045260246000fd5b90600052602060002090600402019050428160010154108015610eff5750600060028083015460ff1690811115610efd57634e487b7160e01b600052602160045260246000fd5b145b15610529576105298383610c9a565b6000546001600160a01b03163314610f2557600080fd5b600080546001600160a01b0319166001600160a01b0392909216919091179055565b6000908152600b60205260409020546001600160a01b0391821691161490565b6001600160a01b0382166000908152600c60205260408120805491610f8b83611612565b90915550506000818152600b6020526040902080546001600160a01b0319166001600160a01b0384811691909117909155831615611009576001600160a01b0383166000908152600c60205260408120805491610fe7836115c0565b90915550506000818152600d6020526040902080546001600160a01b03191690555b7fddf252ad1be2c89b69c2b068fc378daa952ba7f163c4a11628f55a4df523b3ef83838360405161103c939291906114ed565b60405180910390a1505050565b600080546001600160a01b0316331461106157600080fd5b60408051608081018252428152600060208083018281526001848601818152865193840190965283835260608501929092526009805480840182559352835160049093027f6e1540171b6c0c960b71a7020d9f60077f6af931a8bbf590da0223dacf75c7af810193845590517f6e1540171b6c0c960b71a7020d9f60077f6af931a8bbf590da0223dacf75c7b082015593517f6e1540171b6c0c960b71a7020d9f60077f6af931a8bbf590da0223dacf75c7b1909401805493948594909260ff199091169083600281111561114657634e487b7160e01b600052602160045260246000fd5b021790555060608201518051611166916003840191602090910190611190565b50506009546000915061117b906001906115a9565b905061118960008583610f67565b9392505050565b82805461119c906115d7565b90600052602060002090601f0160209004810192826111be5760008555611204565b82601f106111d757805160ff1916838001178555611204565b82800160010185558215611204579182015b828111156112045782518255916020019190600101906111e9565b5061121092915061124c565b5090565b508054611220906115d7565b6000825580601f106112325750610df8565b601f016020900490600052602060002090810190610df891905b5b80821115611210576000815560010161124d565b600067ffffffffffffffff8084111561127c5761127c611643565b604051601f8501601f19908116603f011681019082821181831017156112a4576112a4611643565b816040528093508581528686860111156112bd57600080fd5b858560208301376000602087830101525050509392505050565b80356001600160a01b0381168114610b8057600080fd5b6000602082840312156112ff578081fd5b611189826112d7565b6000806040838503121561131a578081fd5b611323836112d7565b9150611331602084016112d7565b90509250929050565b60008060006060848603121561134e578081fd5b611357846112d7565b9250611365602085016112d7565b9150604084013590509250925092565b6000806000806080858703121561138a578081fd5b611393856112d7565b93506113a1602086016112d7565b925060408501359150606085013567ffffffffffffffff8111156113c3578182fd5b8501601f810187136113d3578182fd5b6113e287823560208401611261565b91505092959194509250565b60008060408385031215611400578182fd5b611409836112d7565b9150602083013561141981611659565b809150509250929050565b60008060408385031215611436578182fd5b61143f836112d7565b946020939093013593505050565b60006020828403121561145e578081fd5b815161118981611659565b60006020828403121561147a578081fd5b5035919050565b60008060408385031215611493578182fd5b82359150602083013567ffffffffffffffff8111156114b0578182fd5b8301601f810185136114c0578182fd5b6114cf85823560208401611261565b9150509250929050565b6001600160a01b0391909116815260200190565b6001600160a01b039384168152919092166020820152604081019190915260600190565b6001600160a01b03929092168252602082015260400190565b90815260200190565b9283526001600160a01b03918216602084015216604082015260600190565b600082198211156115655761156561162d565b500190565b60008261158557634e487b7160e01b81526012600452602481fd5b500490565b60008160001904831182151516156115a4576115a461162d565b500290565b6000828210156115bb576115bb61162d565b500390565b6000816115cf576115cf61162d565b506000190190565b6002810460018216806115eb57607f821691505b6020821081141561160c57634e487b7160e01b600052602260045260246000fd5b50919050565b60006000198214156116265761162661162d565b5060010190565b634e487b7160e01b600052601160045260246000fd5b634e487b7160e01b600052604160045260246000fd5b8015158114610df857600080fdfea2646970667358221220e4be71ee079de510ca67db9edda618e013885c88f8b5f3084eabdcd7b55a23c464736f6c63430008010033",
  "linkReferences": {},
  "deployedLinkReferences": {}
}